:020000040000FA
:100000000C9441060C9472060C9472060C947206C1
:100010000C9472060C9472060C9472060C94720680
:100020000C9472060C9472060C9472060C94720670
:100030000C9472060C9472060C9472060C94720660
:100040000C9472060C9472060C9472060C94720650
:100050000C9472060C9472060C9472060C94A70D04
:100060000C9472060C941B0E0C94F10D0C947206F9
:100070000C9472060C9472060C9472060C94720620
:100080000C9472060C9472060C9472060C94720610
:100090000C9472060C9472060C9472060C94720600
:1000A0000C9472060C9472060C9472060C947206F0
:1000B0000C9472060C9472060C9472060C947206E0
:1000C0000C9472060C9472060C9472060C947206D0
:1000D0000C9472060C9472060C9472060C947206C0
:1000E0000C9472060C94E2060C94B6120C94D00692
:1000F0000C948F080C94F6060C94C7120C947F1382
:100100000C943B140C94DA060C94960E0C94F006A6
:100110000C9420140C9463130C94F9070C94BF06F0
:100120000C9486130C94DE060C949D080C948B158D
:100130000C94D3120C9405140C94B5060C94CA06B6
:100140000C94C7060C94F5060C94FD070C943A0821
:100150000C94C3060C9449080C94EC060C94BB0652
:100160000C94EF120C94B1120C94D5080C94C0139B
:100170000C94E0120C94D4060C94FA060C947113AF
:100180000C9456140C9404080C9401080C948D13D0
:100190000C94E8060C943D095B415649534F5D2091
:1001A0004E656E68756D2070726F6772616D61204B
:1001B00063617272656761646F2E205573652023D9
:1001C000207061726120656E74726172206E6F20A2
:1001D0006D6F646F204C4F41442E002D2D2D2D2D21
:1001E0002D2D2D2D2D2D2D2D2D2D2D2D2D2D2D2D3F
:1001F0002D2D2D2D2D2D2D2D2D2D2D2D2D2D2D2D2F
:100200002D2D2D2D2D2D2D2D2D2D2D2D2D005072E3
:10021000657373696F6E6520272A27206E6F2074BF
:1002200065636C61646F20706172612065786563DD
:100230007574617220696E7374727563616F20707A
:100240006F7220696E7374727563616F2E00546FE4
:1002500074616C20646520696E73747275636F6578
:10026000733A20000A2D2D2D204D4F444F2052551A
:100270004E20494E49434941444F202D2D2D005BCE
:100280004C45445D204E756D65726F206465204C51
:10029000454420696E76616C69646F2028312D3386
:1002A000292E003D3D3D3D3D3D3D3D3D3D3D3D3DDE
:1002B0003D3D3D3D3D3D3D3D3D3D3D3D3D3D3D3D6E
:1002C0003D3D3D3D3D3D3D3D3D3D3D3D3D3D3D3D5E
:1002D0003D0A002020272A27202D3E2045786563EF
:1002E0007574612070726F78696D6120696E7374C6
:1002F000727563616F20286D6F646F2052554E29AF
:10030000002020272A27202D3E20496E696369613D
:10031000206D6F646F206465206578656375636127
:100320006F2028766961205465636C61646F2900D1
:10033000202052554E202D3E20496E696369612070
:100340006D6F646F20646520657865637563616FA8
:1003500020287669612053657269616C290020202C
:100360004E6F206D6F646F204C4F41443A2064699A
:100370006769746520276F70636F6465205B6F70B9
:100380006572616E646F5D27202B20412070617261
:100390006120636F6E6669726D6172002020232098
:1003A0002D3E20456E7472612F73616920646F2049
:1003B0006D6F646F204C4F414400436F6D616E64FC
:1003C0006F7320646973706F6E69766569733A0044
:1003D0003D3D3D3D3D3D3D3D3D3D3D3D3D3D3D3D4D
:1003E0003D3D3D3D3D3D3D3D3D3D3D3D3D3D3D3D3D
:1003F0003D3D3D3D3D3D3D3D3D3D3D3D3D3D002087
:1004000020496E7465727072657461646F722064E5
:100410006520496E73747275636F6573202D20417A
:10042000726475696E6F204D656761003D3D3D3DAD
:100430003D3D3D3D3D3D3D3D3D3D3D3D3D3D3D3DEC
:100440003D3D3D3D3D3D3D3D3D3D3D3D3D3D3D3DDC
:100450003D3D3D3D3D3D3D3D3D3D0020202020209A
:100460002020202031323D42494E432031333D533C
:10047000544F52452031343D4C4F41444D2031358D
:100480003D48414C540020202020202020202037AF
:100490003D4C45444F464620383D42555A4F4E202C
:1004A000393D42555A4F46462031303D444953501C
:1004B0002031313D414C455254004F70636F6465AB
:1004C000733A20303D4E4F5020313D52454144203B
:1004D000323D4C4F41444B20333D4144444B20344A
:1004E0003D5355424B20353D434D504B20363D4CFE
:1004F00045444F4E004578656D706C6F3A204C4F07
:1005000041444B203520E28692207465636C65205F
:100510002732272C202744272C202735272C20273B
:100520004127005573652027442720636F6D6F2096
:1005300065737061636F2C202741272070617261A1
:1005400020636F6E6669726D61722C2027232720ED
:1005500070617261207361697220646F204C4F4139
:10056000440044696769746520696E7374727563C9
:100570006F6573206E6F20666F726D61746F3A20C5
:100580003C6F70636F64655F646563696D616C3E49
:10059000205B6F706572616E646F5D000A2D2D2D9A
:1005A000204D4F444F204C4F414420415449564127
:1005B000444F202D2D2D002020E286922020005D2A
:1005C000200020205B0020202876617A696F2900B6
:1005D0005072657373696F6E6520272A27206E6FCE
:1005E000207465636C61646F206F7520646967694E
:1005F00074652052554E206E6F2053657269616C90
:10060000204D6F6E69746F72207061726120696E27
:10061000696369617220657865637563616F2E0037
:1006200050726F6772616D612061726D617A656E83
:1006300061646F20656D206D656D6F7269613A0050
:10064000546F74616C20646520696E737472756395
:100650006F657320636172726567616461733A20CC
:10066000000A2D2D2D204D4F444F204C4F4144204A
:10067000454E4345525241444F202D2D2D00206EB2
:10068000616F20726570726573656E746176656CFA
:100690002E2045786962696E646F20272D272E0011
:1006A0005B444953504C41595D204E4547415449A4
:1006B000564F3A2076616C6F722000206E616F2079
:1006C000726570726573656E746176656C20656DB8
:1006D00020312064696769746F20646563696D61A6
:1006E0006C2E2045786962696E646F202745272E3D
:1006F000005B444953504C41595D204F564552468A
:100700004C4F573A2076616C6F7220005B414C452C
:1007100052545D203E3D203230636D3A2073616952
:1007200064617320646520616C6572746120444566
:10073000534C4947414441532028736974756163A0
:10074000616F2073656775726129005B414C45528A
:10075000545D2031302D3139636D3A204C454431A0
:10076000204C494741444F2028616C6572746129CF
:100770002C2062757A7A6572206465736C69676192
:10078000646F005B414C4552545D203C2031306326
:100790006D3A2042555A5A4552204C494741444FE0
:1007A000202B204C454431204C494741444F2028C0
:1007B000616C65727461206372697469636F29008A
:1007C00020636D005B414C4552545D204469737455
:1007D000616E636961206D65646964613A20005BE4
:1007E0004552524F5D204F70636F6465206465739E
:1007F000636F6E68656369646F2E005B48414C549B
:100800005D20457865637563616F20656E63657211
:10081000726164612E005B4C4F41444D5D20456E1A
:1008200064657265636F20696E76616C69646F20C0
:1008300028302D3135292E005D203D20005B4C4FA6
:1008400041444D5D20414343203D204D454D5B00DB
:100850005B53544F52455D20456E64657265636F0E
:1008600020696E76616C69646F2028302D313529DE
:100870002E005D203D20005B53544F52455D204DBE
:10088000454D5B00293A20005B42494E435D204FB5
:1008900070636F64652062696E6172696F20646560
:1008A0002049522028005B444953505D2045786917
:1008B00062696E646F20414343203D20005B4255D6
:1008C0005A4F46465D2042757A7A65722064657398
:1008D0006C696761646F2E005B42555A4F4E5D2014
:1008E00042757A7A6572206C696761646F2E0020A8
:1008F0006465736C696761646F2E005B4C45444F9F
:1009000046465D204C45442000206C696761646F59
:100910002E005B4C45444F4E5D204C45442000204A
:100920003F20464C41475F5A203D20005B434D50DD
:100930004B5D20414343203D3D20005B5355424BDE
:100940005D20414343203D20005B4144444B5D20FA
:10095000414343203D20005B4C4F41444B5D2041CF
:100960004343203D200020636D20E28692204143D6
:1009700043005B524541445D2044697374616E637A
:100980006961206C6964613A20005B4E4F505D20C4
:100990004E656E68756D61206F7065726163616F21
:1009A0002E00207C20464C41475F5A3A20002920E7
:1009B0007C204143433A2000202800207C204952DB
:1009C0003A200050433A20005B415649534F5D2086
:1009D000504320616C656D20646F206C696D697493
:1009E0006520646F2070726F6772616D612E2045A3
:1009F0007865637563616F20656E636572726164AB
:100A0000612E002020E286922020005D2041726D40
:100A1000617A656E61646F3A200020205B005B455F
:100A200052524F5D204F70636F646520696E76612E
:100A30006C69646F20286465766520736572203068
:100A40002D3135292E005B4552524F5D204D656D8D
:100A50006F7269612064652070726F6772616D6189
:100A600020636865696121005B415649534F5D20F1
:100A70004275666665722076617A696F2E204E65D2
:100A80006E68756D6120696E7374727563616F2035
:100A900061726D617A656E6164612E005D2028412E
:100AA0003D636F6E6669726D61722C20423D6261BA
:100AB000636B73706163652C20433D6C696D70617D
:100AC000722C20443D65737061636F290042756626
:100AD0006665723A205B005D004275666665723A33
:100AE000205B00427566666572206C696D706F2EC2
:100AF000005D004275666665723A205B005B415698
:100B000049534F5D2053697374656D61206E616F49
:100B1000206573746120656D206D6F646F20525580
:100B20004E2E205072657373696F6E6520272A27D9
:100B3000206E6F207465636C61646F206F75206434
:100B400069676974652052554E206E6F2053657237
:100B500069616C204D6F6E69746F722E0000002108
:100B600000240027002A002D00300033000101007E
:100B700000040107010A0100002200250028002BC3
:100B8000002E003100340002010000050108010BB5
:100B900001000020002300260029002C002F003235
:100BA0000000010000030106010901050505050714
:100BB0000508080808020202020A0A0808040404D8
:100BC0000401010101010101010303030303030304
:100BD00003040707070C0C0C0C0C0C0C0C02020293
:100BE0000206060606060606060B0B0B0B0B0B0B86
:100BF0000B01021020200808102040102040800225
:100C00000102010804020101020408102040808052
:100C100040201008040201800402018040201008D6
:100C200004020108040201010204081020408001AE
:100C30000204081020408000000A0B02090C0D0E6F
:100C4000080703040100000000000000000000008D
:100C50000000000000000000000000000000000094
:100C60000000001211100000000000000000000051
:100C70000000000000000000000000000000960ED0
:100C80008B1511241FBECFEFD1E2DEBFCDBF00E038
:100C90000CBF25E0AAE3B3E001C01D92A334B20764
:100CA000E1F713E0A0E0B2E0E4E7F3E300E00BBF1C
:100CB00002C007900D92AA33B107D9F716E0C0E43D
:100CC000D6E000E006C021970109802FFE010E94B6
:100CD0006E17CF33D10780E00807A9F70E94380FBD
:100CE0000C94A8190C94000096E0899FD00111245F
:100CF000A053BB4F90967C936E935F9791E0919633
:100D00009C939197E0913D05F0913E0590913C05B3
:100D1000992339F0309751F0811108C08091EC048B
:100D20001994309719F05C968C91FACF0895815000
:100D3000823108F05AC0E82FF0E08827ED55F94FCE
:100D40008F4F0C946E17C306C706B506BB06BF06C9
:100D5000F506CA06D006D406DA06DE06E206E8067E
:100D6000EC06F506F006F606FA06809180008F770D
:100D7000809380000895809180008F7DF9CF8091CD
:100D80008000877FF5CF84B58F7784BD089584B5C3
:100D90008F7DFBCF8091B0008F778093B000089556
:100DA0008091B0008F7DF9CF809190008F778093F4
:100DB00090000895809190008F7DF9CF80919000F0
:100DC000877FF5CF8091A0008F778093A000089552
:100DD0008091A0008F7DF9CF8091A000877FF5CF13
:100DE000809120018F7780932001089580912001C8
:100DF0008F7DF9CF80912001877FF5CFCF93DF934F
:100E0000282F30E0F901E95CF34F8491F901EF50AC
:100E1000F44FD491F901E555F44FC491CC23A1F0DE
:100E200081110E949706EC2FF0E0EE0FFF1FEF56A6
:100E3000F44FA591B491EC91ED2381E090E009F499
:100E400080E0DF91CF91089580E090E0FACF1F938A
:100E5000CF93DF93282F30E0F901E95CF34F8491C1
:100E6000F901EF50F44FD491F901E555F44FC491D5
:100E7000CC23A9F0162F81110E949706EC2FF0E0E9
:100E8000EE0FFF1FE958F44FA591B4918FB7F89476
:100E9000EC91111108C0D095DE23DC938FBFDF9158
:100EA000CF911F910895DE2BF8CFCF93DF9390E081
:100EB000FC01EF50F44F24918555944FFC0184912F
:100EC0008823C9F090E0880F991FFC01E35AF44F82
:100ED000A591B491FC01E958F44FC591D4916111E9
:100EE0000DC09FB7F8948C91209582238C938881B4
:100EF000282328839FBFDF91CF910895623051F45A
:100F00009FB7F8943C91822F809583238C93E8813E
:100F10002E2BEFCF8FB7F894EC912E2B2C938FBF05
:100F2000EACF2FB7F8946091690370916A038091BA
:100F30006B0390916C032FBF08950F931F93CF9372
:100F4000DF93C82FD62F86E0C89FF0011124E0530D
:100F5000FB4F11A2878D90A181309105F1F058F0DF
:100F600082309105F1F1039709F440C0DF91CF91F0
:100F70001F910F9108956623C9F361E070E08C2FF3
:100F80000E9474060E9491076093280570932905BA
:100F900080932A0590932B05E9CF0E949107009139
:100FA00028051091290520912A0530912B05AB01C8
:100FB000BC01401B510B620B730B80913A05909161
:100FC0003B05B0E0A0E084179507A607B70748F4F3
:100FD00062E070E08C2FDF91CF911F910F910C9404
:100FE000740663E070E0D111C1CFF4CF70E060E02F
:100FF000F1CF862F642F0C945507862F642F0C9405
:101000002707862F0C94FE06AF92BF92CF92DF92F5
:10101000EF92FF920F931F93CF93DF936C017B01AD
:101020008B01040F151FEB015E01AE18BF08C0173E
:10103000D10759F06991D601ED91FC910190F081B1
:10104000E02DC6011995892B79F7C501DF91CF9164
:101050001F910F91FF90EF90DF90CF90BF90AF90D6
:101060000895FC0144815581608171818DE693E092
:101070000C940408FC01538D448D252F30E0842FFF
:1010800090E0821B930B541710F0CF9608950197B0
:101090000895FC01918D828D981761F0A28DAE0F9D
:1010A000BF2FB11D5D968C91928D9F5F9F73928F24
:1010B00090E008958FEF9FEF08950F931F930E9484
:1010C00091076093750370937603809377039093F1
:1010D00078038DE693E00E94490897FF1DC00E94A7
:1010E0009107009175031091760320917703309159
:1010F0007803601B710B820B930B009171031091AD
:101100007203209173033091740360177107820793
:101110009307F8F28FEF9FEF1F910F910895FC0155
:10112000918D828D981731F0828DE80FF11D858D9C
:1011300090E008958FEF9FEF0895FC01918D228D2F
:10114000892F90E0805C9F4F821B91098F739927B4
:1011500008958DE693E00E949D0821E0892B09F413
:1011600020E0822F0895FC01A48DA80FB92FB11D96
:10117000A35ABF4F2C91848D90E001968F739927CD
:10118000848FA689B7892C93A089B1898C918370AB
:1011900080648C93938D848D981306C00288F389A4
:1011A000E02D80818F7D80830895EF92FF920F93D1
:1011B0001F93CF93DF93EC0181E0888F9B8D8C8D03
:1011C00098131AC0E889F989808185FF15C09FB7F7
:1011D000F894EE89FF896083E889F98980818370BA
:1011E000806480839FBF81E090E0DF91CF911F9169
:1011F0000F91FF90EF900895F62E0B8D10E00F5F8A
:101200001F4F0F731127E02E8C8D8E110CC00FB65F
:1012100007FCFACFE889F989808185FFF5CFCE01F7
:101220000E94B308F1CFEB8DEC0FFD2FF11DE35AB7
:10123000FF4FF0829FB7F8940B8FEA89FB8980817A
:101240008062CFCF0F931F93CF93DF938C01D0E0B9
:10125000C0E0F801EC0FFD1F6491662341F08DE6BC
:1012600093E00E94D508892B11F02196F2CFCE0190
:10127000DF91CF911F910F910895CF93DF93EC01F0
:10128000888D8823B9F0AA89BB89E889F9898C916E
:1012900085FD03C0808186FD0DC00FB607FCF7CF2A
:1012A0008C9185FFF2CF808185FFEDCFCE010E942A
:1012B000B308E9CFDF91CF91089580E090E0892BCA
:1012C00029F00E94A90881110E94000080E090E0AE
:1012D000892B49F080E090E0892B29F00E940000E2
:1012E00081110E94000080E090E0892B49F080E0AD
:1012F00090E0892B29F00E94000081110E940000DB
:1013000080E090E0892B49F080E090E0892B29F083
:101310000E94000081110C9400000895EF92FF924A
:101320000F931F93CF93DF938D30910510F08CE0D6
:1013300090E029E7E22E22E0F22E27E0289F8001AC
:10134000299F100D1124D0E0C0E0F70181917F01A9
:10135000FE01E00FF11FE25EFD4F61E0908191110F
:1013600060E00E9427072196C730D10571F7DF9111
:10137000CF911F910F91FF90EF900895FC01019084
:101380000020E9F73197AF01481B590BBC018DE6EE
:1013900093E00C940408CF93DF930E942209EC01A0
:1013A0008CEB92E00E94BE098C0F9D1FDF91CF91C4
:1013B00008958230910539F08330910559F00197F5
:1013C00029F48AE201C08BE20C9427078FE792E0B0
:1013D0000C94CB098CE2F8CFCF93DF930E943108B5
:1013E000EC018CEB92E00E94BE098C0F9D1FDF91F7
:1013F000CF9108958F929F92AF92BF92CF92DF923A
:10140000EF92FF920F931F93CF93DF93CDB7DEB789
:10141000A1970FB6F894DEBF0FBECDBF6C01990F38
:10142000EE08FF08F7FE41C06DE28DE693E00E94F2
:10143000D5088C0122273327A9012C193D094E0913
:101440005F0919A2CE0181967C019AE0892E912C28
:10145000A12CB12CCA01B901A50194010E944C171D
:10146000605DF70162937F0121153105410551054A
:1014700089F790E080E0309719F0CF010E94BE0913
:10148000800F911FA1960FB6F894DEBF0FBECDBF9F
:10149000DF91CF911F910F91FF90EF90DF90CF9050
:1014A000BF90AF909F908F900895A701960119A2C9
:1014B0008E010F5D1F4F8AE0C82ED12CE12CF12C3C
:1014C000CA01B901A70196010E944C17605DF8019D
:1014D00062938F01211531054105510589F790E08F
:1014E00080E0309779F2CF010E94BE09CBCFCF9335
:1014F000DF930E94FA09EC018CEB92E00E94BE0996
:101500008C0F9D1FDF91CF91089580916003909182
:101510006103892B21F488E991E00C94CB091092A6
:101520005F0310925E0310925C0310925B031092B3
:101530005A0381E08093620384E692E00E94CB0923
:101540008EE492E00E9422098091600390916103F1
:101550000E94770A8EE092E00E94CB098BED91E029
:10156000DCCFCF93DF930E94BE09EC018CEB92E0BD
:101570000E94BE098C0F9D1FDF91CF910895CF93DC
:10158000DF93FC0124813581232B71F0C081D1814F
:1015900060E270E0CE010E948D19009729F08C1B4B
:1015A0009D0BDF91CF9108958FEF9FEFFACFAF9210
:1015B000BF92CF92DF92EF92FF920F931F93CF9340
:1015C000DF93DC01CD90DC901197C114D10439F088
:1015D0001496CD91DC918C017601209761F4DF9116
:1015E000CF911F910F91FF90EF90DF90CF90BF9020
:1015F000AF90089575015701BFEFAB1ABB0AF70111
:101600008081082E000C990B0E94FF15892B91F701
:101610002197CC0DDD1D8881082E000C990B0E94AE
:10162000FF15892B29F0CE15DF0510F02197F3CF98
:10163000AE014F5F5F4F4E195F09D80115965C935D
:101640004E931497CE14DF0420F4B701C6010E9414
:101650008419D801ED91FC91119714968D919C916C
:10166000E80FF91F1082BBCF0F931F93CF93DF9327
:10167000EC0188819981009759F02A813B812617D6
:10168000370730F081E0DF91CF911F910F910895DE
:101690008B016F5F7F4F0E949B18009759F09983D1
:1016A00088831B830A832C813D81232B59F7FC01FE
:1016B0001082E8CF80E0E7CFEF92FF920F931F9365
:1016C000CF93DF9341155105B1F07B01EC010C8103
:1016D0001D81040F151FB8010E94340B882361F08F
:1016E000288139818C819D81B701820F931F0E94CF
:1016F000A1191D830C8381E0DF91CF911F910F9180
:10170000FF90EF900895CF93DF93EC01888199814A
:10171000009711F00E941218198218821D821C82F3
:101720001B821A82DF91CF910895EF92FF920F935F
:101730001F93CF93DF93EC017B018A01BA010E94D2
:10174000340B81110BC0CE010E94830BCE01DF91BF
:10175000CF911F910F91FF90EF9008951D830C83FF
:10176000B701888199810E94A119F0CFFB010190F6
:101770000020E9F73197AF01461B570B0C94950BEE
:10178000CF93DF93EC01FB018617970749F0608147
:1017900071816115710541F0448155810E94950B5D
:1017A000CE01DF91CF9108950E94830BF9CFFC0108
:1017B0001182108213821282158214820C94C00B43
:1017C000FC0111821082138212821582148261152B
:1017D000710551F0FB0101900020E9F73197AF014D
:1017E000461B570B0C94950B0895AF92BF92CF9266
:1017F000DF92EF92FF920F931F93CF93DF936C01D1
:101800005B017A0189012417350720F48F2D7901B6
:10181000042F182F6EEB72E0C6010E94E00BD50179
:101820001496CD91DC91EC16FD06E0F40C171D0723
:1018300008F4E801D501ED91FC911197EC0FFD1F23
:10184000108110826D917C916E0D7F1DC601611516
:101850007105A1F00E94B60BF50180819181C80F3E
:10186000D91F1883C601DF91CF911F910F91FF906F
:10187000EF90DF90CF90BF90AF9008950E94830BC0
:10188000EBCFEF92FF920F931F93CF93DF938C01D7
:10189000E62E6EEB72E00E94E00BC3E0D0E0F12C8C
:1018A000C7010C2E02C0959587950A94E2F76FEB5D
:1018B00072E080FF02C061EC72E041E050E0C801DC
:1018C0000E945C0B219760F7C801DF91CF911F91B7
:1018D0000F91FF90EF900895FC0180819181009716
:1018E00011F00C94121808950F931F93CF93DF9368
:1018F00000D000D0CDB7DEB78C010E94BF0A97FDA3
:101900002AC0F80124813581AC014F5F5F4FB801D7
:10191000CE0101960E94F50BCE0101960E94D70AD6
:1019200089819A81009799F00E949E158B01CE01C2
:1019300001960E946C0CC80126960FB6F894DEBF83
:101940000FBECDBFDF91CF911F910F91089560E041
:1019500070E0CB01EBCF10E000E0EDCF0F931F93D1
:10196000CF93DF9300D000D0CDB7DEB78C010E94BB
:10197000D70AC8010E94BF0A97FD2AC09C0150E007
:1019800040E0B801CE0101960E94F50BCE01019610
:101990000E94D70A89819A81009701F10E949E15C1
:1019A0008B016031710514F00FE010E0CE0101965B
:1019B0000E946C0CC80117FD80E026960FB6F894C3
:1019C000DEBF0FBECDBFDF91CF911F910F91089564
:1019D000B801CE0101960E94D70BD8CF60E070E02D
:1019E000CB01DECF0F931F9360E088E20E942707B0
:1019F00083E090E00197F1F761E088E20E94270719
:101A000083E290E00197F1F760E088E20E94270707
:101A1000EAE1FCE06491E4EDFBE0E491F0E0EE0F3C
:101A2000FF1FEF56F44F8591949100E315E720E0F6
:101A300030E0462F0E94510E611571058105910518
:101A400029F06F5F7F4F8F4F9F4F9F700E941A1634
:101A500026E933E44BE05DE30E94551620E030E0D8
:101A600040E05FE30E9455160E9416179B016150EB
:101A700071096039714010F030E020E0C9011F9118
:101A80000F910895AF92BF92CF92DF92FF920F9382
:101A90001F93CF93DF9300D000D01F921F92CDB73A
:101AA000DEB76C015B018E010F5F1F4FC8010E9402
:101AB000D70BC8010E94AE0CF82EC8010E946C0C16
:101AC000B501C8010E94D70BC8010E94740C5C01CB
:101AD000C8010E946C0CEF2DF0E0EE0FFF1FE058E4
:101AE000FD4F60817181C6010E94E00B8EEF8F0D6A
:101AF000863020F083EF8F0D8230C0F441E050E05B
:101B000063EC72E0C6010E945C0B4AE0B801C501BB
:101B10000E94C515F80101900020E9F73197AF0147
:101B2000401B510BB801C6010E945C0BC6012896F0
:101B30000FB6F894DEBF0FBECDBFDF91CF911F91DE
:101B40000F91FF90DF90CF90BF90AF9008951F92BC
:101B50000F920FB60F9211242F933F938F939F9361
:101B6000AF93BF938091690390916A03A0916B0337
:101B7000B0916C033091680323E0230F2D3758F5A3
:101B80000196A11DB11D2093680380936903909372
:101B90006A03A0936B03B0936C03809164039091EC
:101BA0006503A0916603B09167030196A11DB11D65
:101BB0008093640390936503A0936603B0936703D7
:101BC000BF91AF919F918F913F912F910F900FBE39
:101BD0000F901F90189526E8230F0296A11DB11DA6
:101BE000D2CF1F920F920FB60F9211240BB60F9205
:101BF0002F933F934F935F936F937F938F939F9315
:101C0000AF93BF93EF93FF938DE693E00E94B308E9
:101C1000FF91EF91BF91AF919F918F917F916F91C4
:101C20005F914F913F912F910F900BBE0F900FBE80
:101C30000F901F9018951F920F920FB60F921124BC
:101C40000BB60F922F938F939F93EF93FF93E09197
:101C50007D03F0917E038081E0918303F091840302
:101C600082FD1DC09081809186038F5F8F732091CC
:101C70008703821741F0E0918603F0E0E359FC4FBF
:101C8000958F80938603FF91EF919F918F912F9174
:101C90000F900BBE0F900FBE0F901F901895808174
:101CA000F2CFCF92DF92EF92FF920F931F93E82F24
:101CB000F92F05C0015011092109310961F1908105
:101CC00096239417B9F305C0015011092109310970
:101CD00011F1908196239413F7CFC12CD12CE12CD4
:101CE000F12C0AC08FEFC81AD80AE80AF80A0C15B6
:101CF0001D052E053F0579F080818623841791F319
:101D00006C2D7D2D8E2D9F2D1F910F91FF90EF90AB
:101D1000DF90CF90089560E070E080E090E01F9148
:101D20000F91FF90EF90DF90CF900895CF93DF93C6
:101D30001092700310926F0388EE93E0A0E0B0E081
:101D40008093710390937203A0937303B093740311
:101D500084EA92E090936E0380936D0385EC90E0AB
:101D600090937A038093790384EC90E090937C03C2
:101D700080937B0380EC90E090937E0380937D03BF
:101D800081EC90E09093800380937F0382EC90E05D
:101D9000909382038093810386EC90E09093840378
:101DA0008093830310928603109287031092880316
:101DB000109289031092D2041092D6041092D50486
:101DC0001092D70486EB92E09093D1048093D004D4
:101DD000ECEEF4E01082148213821582369685E0D0
:101DE000E832F807B9F784E092E0909333058093E6
:101DF000320580E092E0909335058093340584E0CD
:101E0000809336058093370588E092E09093310502
:101E1000809330058AE090E09093390580933805EF
:101E200084EF91E090933B0580933A0510923E0534
:101E300010923D0510922C0510922D0510922E0542
:101E400010922F0510923C05C0E1D4E06EEB72E0D9
:101E5000CE010E94E00B269684E0C03DD807B1F782
:101E60006EEB72E08AE094E0DF91CF910C94E00B8E
:101E7000CF93DF93CDB7DEB762970FB6F894DEBF8E
:101E80000FBECDBF789484B5826084BD84B5816077
:101E900084BD85B5826085BD85B5816085BD809135
:101EA0006E00816080936E001092810080918100AD
:101EB00082608093810080918100816080938100A5
:101EC000809180008160809380008091B100846067
:101ED0008093B1008091B00081608093B0008091C8
:101EE0009100826080939100809191008160809345
:101EF0009100809190008160809390008091A1007A
:101F000082608093A1008091A10081608093A100F4
:101F10008091A00081608093A00080912101826067
:101F20008093210180912101816080932101809122
:101F3000200181608093200180917A0084608093E9
:101F40007A0080917A00826080937A0080917A0092
:101F5000816080937A0080917A00806880937A0013
:101F60001092C100E0917D03F0917E0382E08083B6
:101F7000E0917903F0917A031082E0917B03F09174
:101F80007C038FEC808310928503E0918103F091B4
:101F9000820386E08083E0917F03F091800380815B
:101FA00080618083E0917F03F0918003808188606D
:101FB0008083E0917F03F09180038081806880833B
:101FC000E0917F03F091800380818F7D808309E71A
:101FD00012E0E0E8EE2EE2E0FE2E61E0F8018191F1
:101FE0008F010E945507E016F106B9F761E08DE117
:101FF0000E94550761E08DE10E94270761E08AE2B7
:102000000E94550761E08BE20E94550761E08CE277
:102010000E94550761E08DE20E94550761E088E269
:102020000E94550760E089E20E94550760E08AE25D
:102030000E94270760E08BE20E94270760E08CE2A5
:102040000E94270760E08DE20E9427078CE090E065
:102050000E948E098CE294E00E94CB098FEF93E0FE
:102060000E94CB0980ED93E00E94CB098AEB93E0BC
:102070000E94CB098CE993E00E94CB098EE593E0A6
:102080000E94CB0980E393E00E94CB0981E093E0BA
:102090000E94CB0983ED92E00E94CB0983EA92E093
:1020A0000E94CB09412C512C3201439476E0E72E5B
:1020B00081E080933C050E94910700912C051091CE
:1020C0002D0520912E0530912F05AB01BC01401B41
:1020D000510B620B730B8091380590913905B0E07C
:1020E000A0E084179507A607B70708F02CC110E0F9
:1020F00080913605181760F4E0913205F0913305B0
:10210000E10FF11D62E080810E9455071F5FF0CF53
:10211000F12C80913705F81608F061C0CF2CD12C36
:10212000E0913405F0913505EC0DFD1D61E08081F5
:102130000E945507E0913405F0913505EC0DFD1D29
:1021400060E080810E942707D301C2010F2C04C0E8
:10215000880F991FAA1FBB1F0A94D2F74C015C017C
:10216000A094B094312C80913605381608F5032DD3
:1021700010E0E0913205F0913305E00FF11F80810E
:102180000E94FE060C5F1F4F000F111FF801E05365
:10219000FB4F892B41F48081918188299929918372
:1021A00080833394E0CF808191818A219B21F7CF76
:1021B000E0913405F0913505EC0DFD1D61E0808165
:1021C0000E9427078091340590913505C80ED91ECD
:1021D00060E0F60180810E945507F3949ACF40EDAC
:1021E000C42E44E0D42E8601F801878D90A1892B5E
:1021F00031F4148E2FEF3FEF368F258F11A20A5F37
:102200001F4F35E00C30130779F7F12C809136051C
:10221000F81608F052C0912CAF2CB12CAA0CBB1CA4
:10222000C50188529B4F5C0120913705921608F03A
:1022300042C0F50160817181092C02C076956795D5
:102240000A94E2F7F29E90011124290D311DE0ED70
:10225000F4E080E0458D568D2417350709F459C404
:102260008F5F36968A30B1F760FF23C0E0EDF4E06F
:1022700090E080E0448D411117C0E0913005F0916D
:102280003105E20FF31F4081E89EF001E99EF00D59
:102290001124E053FB4F448F368F258F10A2178EE9
:1022A00061E00E949D0705C0019636968A3091052F
:1022B00009F79394B9CFF394A9CFF12CF60181A13A
:1022C0008111F82EF6E0CF0ED11C0C151D05B1F7CB
:1022D0000E94910760932C0570932D0580932E0525
:1022E00090932F05FF2079F18091F104882359F113
:1022F0008091EF049091F004019729F58091EC040E
:10230000811124C08DE693E00E949D08892B09F479
:10231000FDC36EEB72E0CE0101960E94E00B0E94BD
:102320005D0897FDCAC38A30910509F4C6C38F833F
:10233000188641E050E0BE01695F7F4FCE010196F3
:102340000E945C0BECCF10923C05DCCF833209F08D
:102350009FC080916303811139C081E08093630342
:1023600010926203109261031092600300E114E086
:102370006EEB72E0C8010E94B60B0A5F1F4F24E0AB
:10238000003D1207A9F76EEB72E08AE094E00E942C
:10239000B60B8CE995E00E94CB0982E695E00E949D
:1023A000CB0983E295E00E94CB0985EF94E00E947F
:1023B000CB098AEB94E00E94CB0986E894E00E9466
:1023C000CB098BE594E00E94CB099CCF109263036C
:1023D0006EEB72E08AE094E00E94B60B81E696E034
:1023E0000E94CB0980E496E00E942209809160035C
:1023F000909161030E94770A80E296E00E94CB09E7
:10240000809160039091610300E114E0D12CC12C14
:10241000892B39F486EC95E00E94CB0980ED95E09C
:10242000D2CF8091600390916103C816D906B4F7AA
:1024300082EC95E00E942209C6010E94FA098FEB06
:1024400095E00E942209C8010E94310887EB95E0BF
:102450000E942209B801CE0101960E94D70BBE014D
:102460006F5F7F4FCE0107960E94420DCE01079607
:102470000E94EC09CE0107960E946C0CCE010196D9
:102480000E946C0C3FEFC31AD30A0A5F1F4FC9CFDB
:102490008A3209F01FC280916203811107C08091C6
:1024A0006303811114C20E94850A2CCF80915E03C0
:1024B00090915F032091600330916103821793072D
:1024C0003CF088EC99E00E94CB09109262031ACF8D
:1024D000E89EB001E99E700D1124605F7B4FCE0134
:1024E00007960E94D70BBE01695F7F4FCE01019610
:1024F0000E94D70BCE0101960E94AE0CF82E80935D
:102500005D03CE0101960E946C0CBE01695F7F4F96
:10251000CE0101960E94D70BCE0101960E94740C49
:102520008C01CE0101960E946C0C8FE08F1508F48F
:10253000C8C1EF2DF0E08827EF55FD4E8F4F0C946A
:102540006E17B112B612C712D312E012EF12631354
:1025500071137F1386138D13C013051420143B14BD
:1025600056148AE899E00E94CB0958C00E94F20CE8
:102570008C0190935C0380935B0382E799E00E9457
:102580002209C8010E94FA0986E699E0ECCF10936F
:102590005C0300935B0387E599E00E942209C80170
:1025A0000E94770A3BC080915B0390915C03080F07
:1025B000191F10935C0300935B0389E499E0EDCF4E
:1025C00080915B0390915C03FC01E01BF10B8F0198
:1025D000F0935C03E0935B038BE399E0DECF81E053
:1025E00020915B0330915C032017310709F080E0F4
:1025F00080935A038CE299E00E942209C8010E944C
:10260000FA098FE199E00E94220980915A038823F8
:1026100009F456C085EC92E00E94B10A83EC99E07F
:102620000E94220980915E0390915F030E94FA0943
:102630008BEB99E00E94220960915D03CE01019627
:102640000E94410CCE0101960E943108CE010196F4
:102650000E946C0C88EB99E00E942209E0915D03D6
:10266000F0E0EE0FFF1FE058FD4F80819181009751
:1026700011F00E94BE098EEA99E00E942209809121
:102680005B0390915C030E94FA0982EA99E00E9440
:10269000220980915A03882309F416C181EC92E043
:1026A0000E94B10A80915E0390915F03019690931E
:1026B0005F0380935E03CE0107960E946C0C22CECE
:1026C0008FEC92E0A9CF61E0C8010E94D90982E1B4
:1026D00099E00E942209C8010E94FA0989E099E064
:1026E00042CF60E0C8010E94D9098BEF98E00E94B8
:1026F0002209C8010E94FA098FEE98E034CF61E008
:102700008DE20E94270788ED98E02DCF60E08DE2F2
:102710000E9427078DEB98E026CF00915B03109174
:102720005C030A301105C4F08AE090E00E948E0933
:1027300081EF96E00E942209C8010E94FA098BEB02
:1027400096E00E94CB0986EA98E00E9422098091D7
:102750005B0390915C0324CF17FF0EC08BE090E0E9
:102760000E948E0980EA96E00E942209C8010E9418
:10277000FA098EE796E0E5CFC8010E948E09E3CF03
:102780000E94F20C8C0184EC97E00E942209C8019F
:102790000E94FA0980EC97E00E94CB090A301105EB
:1027A0008CF461E08DE20E94270761E081E090E017
:1027B0000E94D90960E082E090E00E94D90983E894
:1027C00097E0D1CE60E08DE2043111057CF40E94E7
:1027D000270761E081E090E00E94D90960E082E093
:1027E00090E00E94D9098BE497E0BDCE0E942707B4
:1027F00060E081E090E00E94D90960E082E090E032
:102800000E94D9098CE097E0AECE88E898E00E945B
:1028100022098DED92E00E94BE0984E898E00E94B2
:10282000220960915D03CE0101960E94410CCE0108
:1028300001960E94EC09CE0101960E946C0CEECE2E
:1028400000311105A8F4F801EE0FFF1FE65CFC4F04
:1028500080915B0390915C039183808387E798E08C
:102860000E942209C8010E94FA0982E798E06DCF10
:1028700080E598E078CE00311105A8F4F801EE0F5C
:10288000FF1FE65CFC4F8081918190935C038093F5
:102890005B038DE398E00E942209C8010E94FA09B7
:1028A00088E398E052CF86E198E05DCE1092620313
:1028B0008BEF97E00E94CB098CE090E00E948E099C
:1028C000ADCE8FED97E04FCE8FEB92E0E9CE8DEF5E
:1028D0009AE079CD90916303992309F413CD813463
:1028E00009F095C08AE094E00E94D70A80910E0416
:1028F00090910F04892B19F488E69AE064CD009139
:1029000060031091610386E49AE0003211050CF037
:102910005ACD8AE094E00E94BF0A97FD23C09C0133
:1029200050E040E06AE074E0CE010D960E94F50BA5
:10293000CE010D960E94D70A8D859E850097C9F01D
:102940000E949E1560317105C0F08EE19AE00E94F0
:10295000CB096EEB72E08AE094E00E94B60BCE01E8
:102960000D96ABCE6AE074E0CE010D960E94D70BB7
:10297000DFCF60E070E0CB01E5CFE09EC001E19EDB
:10298000900D11246AE074E0805F9B4F0E94C00BA1
:102990006AE074E0CE0101960E94D70BBE016F5F22
:1029A0007F4FCE0107960E94420DCE0101960E94F4
:1029B0006C0C8AE19AE00E94220980916003909158
:1029C00061030E94FA098BE09AE00E9422098AE0E2
:1029D00094E00E94310883E09AE00E942209CE012F
:1029E00007960E94EC098091600390916103019623
:1029F00090936103809360036EEB72E08AE094E051
:102A00000E94B60BCE0107960E946C0CA8CF8234B0
:102A1000F1F480910E0490910F04009709F472CCA8
:102A20000197E0910A04F0910B04E80FF91F9093CD
:102A30000F0480930E04108283EF9AE00E94220913
:102A40008AE094E00E94310881EF9AE0BCCC8334A4
:102A500049F46EEB72E08AE094E00E94B60B83EEDC
:102A60009AE0B1CC843499F441E050E063EC72E038
:102A70008AE094E00E945C0B89ED9AE00E942209B2
:102A80008AE094E00E94310887ED9AE09CCC89832B
:102A90001A8241E050E0BE016F5F7F4F8AE094E010
:102AA0000E945C0B8DEC9AE00E9422098AE094E07F
:102AB0000E9431088CE99AE086CCCE0101960E94F2
:102AC000D70A09811A810115110571F0F801819168
:102AD0008F01882349F0082E000C990B0E947C1965
:102AE000F80131978083F2CF8D819E81892B51F03F
:102AF00062EE72E089819A810E949819892B11F403
:102B00000E94850ACE0101960E946C0C0E945D090C
:102B1000CFCA6170C6CBCF93DF938AE094E00E9466
:102B20006C0CC0EDD4E02697CE010E946C0C84E0C2
:102B3000C031D807C1F7DF91CF9108951F93FC01F1
:102B400099278827BC01E89411911032E9F31930D4
:102B500010F01E30C8F31B3251F01D3249F4689456
:102B600006C00E94D015610F711D811D911D11912C
:102B700010531A30B0F33EF490958095709561959E
:102B80007F4F8F4F9F4F1F910895BB274A3031F4DD
:102B9000992322F4BDE2909581959F4F0C94E61500
:102BA000592F482F372F262F660F771F881F991F01
:102BB000660F771F881F991F620F731F841F951F51
:102BC000660F771F881F991F0895BB27FB015527A4
:102BD000AA27880F991FAA1FA41710F0A41B83957A
:102BE0005051B9F7A05DAA3308F0A95DA1930097F1
:102BF00079F7B111B1931192CB010C940816911190
:102C00000C94C216803219F089508550C8F7089587
:102C1000DC01FC01672F71917723E1F7329704C043
:102C20007C916D9370836291AE17BF07C8F30895CE
:102C3000E89409C097FB3EF4909580957095619556
:102C40007F4F8F4F9F4F9923A9F0F92F96E9BB270C
:102C50009395F695879577956795B795F111F8CF88
:102C6000FAF4BB0F11F460FF1BC06F5F7F4F8F4FF3
:102C70009F4F16C0882311F096E911C0772321F0E9
:102C80009EE8872F762F05C0662371F096E8862F81
:102C900070E060E02AF09A95660F771F881FDAF7D8
:102CA000880F9695879597F908950E9468160C9459
:102CB000DC160E94CE1638F00E94D51620F095231F
:102CC00011F00C94C5160C94CB1611240C9410170B
:102CD0000E94ED1670F3959FC1F3950F50E0551FBC
:102CE000629FF001729FBB27F00DB11D639FAA2761
:102CF000F00DB11DAA1F649F6627B00DA11D661FB0
:102D0000829F2227B00DA11D621F739FB00DA11DD0
:102D1000621F839FA00D611D221F749F3327A00D8A
:102D2000611D231F849F600D211D822F762F6A2F26
:102D300011249F5750409AF0F1F088234AF0EE0F8B
:102D4000FF1FBB1F661F771F881F91505040A9F7B8
:102D50009E3F510580F00C94C5160C9410175F3FF0
:102D6000E4F3983ED4F3869577956795B795F795F4
:102D7000E7959F5FC1F7FE2B880F911D969587956C
:102D800097F9089599278827089597F99F6780E80C
:102D900070E060E008959FEF80EC089500240A94AD
:102DA0001616170618060906089500240A94121626
:102DB0001306140605060895092E0394000C11F459
:102DC000882352F0BB0F40F4BF2B11F460FF04C006
:102DD0006F5F7F4F8F4F9F4F089557FD9058440F5F
:102DE000551F59F05F3F71F04795880F97FB991F6A
:102DF00061F09F3F79F08795089512161306140627
:102E0000551FF2CF4695F1DF08C0161617061806B3
:102E1000991FF1CF86957105610508940895E8948E
:102E2000BB2766277727CB0197F908950E941D17C6
:102E30006894B1110C94101708950E94F51688F04B
:102E40009F5798F0B92F9927B751B0F0E1F0660F6E
:102E5000771F881F991F1AF0BA95C9F714C0B130AF
:102E600091F00E940F17B1E008950C940F17672F8F
:102E7000782F8827B85F39F0B93FCCF386957795DE
:102E80006795B395D9F73EF49095809570956195C7
:102E90007F4F8F4F9F4F0895A1E21A2EAA1BBB1B95
:102EA000FD010DC0AA1FBB1FEE1FFF1FA217B30716
:102EB000E407F50720F0A21BB30BE40BF50B661F2C
:102EC000771F881F991F1A9469F7609570958095F0
:102ED00090959B01AC01BD01CF010895EE0FFF1F3E
:102EE000881F8BBF0790F691E02D19940F931F93C5
:102EF000CF93DF938230910510F482E090E0E0916F
:102F00004105F091420530E020E0B0E0A0E03097CC
:102F100099F42115310509F44AC0281B390B2430D6
:102F20003105D8F58A819B816115710589F1FB0115
:102F300093838283FE0111C04081518102811381FC
:102F400048175907E0F04817590799F4109761F0AE
:102F500012960C93129713961C933296CF01DF9121
:102F6000CF911F910F910895009341051093420551
:102F7000F4CF2115310551F04217530738F0A9015C
:102F8000DB019A01BD01DF01F801C1CFEF01F9CFEB
:102F90009093420580934105CDCFFE01E20FF31FD0
:102FA000819391932250310939832883D7CF20917F
:102FB0003F0530914005232B41F420911A023091B6
:102FC0001B023093400520933F0520911802309159
:102FD00019022115310541F42DB73EB740911C026D
:102FE00050911D02241B350BE0913F05F0914005E7
:102FF000E217F307A0F42E1B3F0B2817390778F0D0
:10300000AC014E5F5F4F2417350748F04E0F5F1F2E
:103010005093400540933F05819391939FCFF0E0FB
:10302000E0E09CCFCF93DF930097E9F0FC0132976B
:1030300013821282A0914105B0914205ED0130E06A
:1030400020E01097A1F420813181820F931F2091FD
:103050003F05309140052817390709F061C0F0930A
:103060004005E0933F05DF91CF910895EA01CE1727
:10307000DF07E8F54A815B819E0141155105B1F7F3
:10308000E901FB83EA8349915991C40FD51FEC17DD
:10309000FD0761F4808191810296840F951FE901FB
:1030A00099838883828193819B838A83F0E0E0E027
:1030B00012968D919C9113970097B9F52D913C91A3
:1030C0001197CD010296820F931F20913F053091F9
:1030D00040052817390739F6309751F51092420507
:1030E00010924105B0934005A0933F05BCCFD38318
:1030F000C28340815181840F951FC817D90761F49D
:103100004E5F5F4F88819981480F591F51834083DB
:103110008A819B81938382832115310509F0B0CF89
:10312000F0934205E09341059ECFFD01DC01C0CF45
:1031300013821282D7CF4F925F926F927F928F92BB
:103140009F92AF92BF92CF92DF92EF92FF920F9336
:103150001F93CF93DF938C01009799F4CB01DF91FC
:10316000CF911F910F91FF90EF90DF90CF90BF9084
:10317000AF909F908F907F906F905F904F900C9446
:103180007617FC01E60FF71F9C0122503109E21768
:10319000F30708F4AEC0D901CD91DC911197C617A1
:1031A000D70720F1C530D10578F0CE0104978617F6
:1031B000970750F0C61BD70B2297C193D1936D93FD
:1031C0007C93CF010E941218C801DF91CF911F910B
:1031D0000F91FF90EF90DF90CF90BF90AF909F90B6
:1031E0008F907F906F905F904F9008955B01AC1A25
:1031F000BD0A4C018C0E9D1EA0914105B091420567
:10320000512C412CF12CE12C109731F580913F0588
:10321000909140058815990509F05CC0461657063F
:1032200008F058C08091180290911902009741F45B
:103230008DB79EB740911C0250911D02841B950BC7
:10324000E817F90708F055C0F0934005E0933F05F3
:10325000F90171836083B8CF8D919C91119712967B
:103260006C90129713967C901397A815B90559F591
:103270006C0142E0C40ED11CCA14DB0420F1AC0185
:103280004A195B09DA011296159780F062827382FF
:1032900051834083D9016D937C93E114F10471F063
:1032A000D7011396FC93EE9312978ECF22968C0F34
:1032B0009D1FF90191838083F301EFCFF0934205C5
:1032C000E093410581CF4816590608F42C017D0191
:1032D000D3019ACFCB010E9476177C01009749F069
:1032E000AE01B8010E948419C8010E94121887011A
:1032F0006BCF10E000E068CF9111089581568A519C
:1033000008F4805285580895FB01DC0102C0019049
:103310000D9241505040D8F70895FC0181918617D5
:1033200021F08823D9F7992708953197CF0108957F
:10333000FB01DC018D91019080190110D9F3990BEB
:103340000895FB01DC0101900D920020E1F7089542
:1033500016E0C0E4D6E000E006C0802FFE010E9427
:103360006E172196011DC134D10780E00807A9F727
:10337000F894FFCF222324251E1F20213132334110
:1033800034353642373839432A3023440000430568
:1033900080000101010101010000010100000000A5
:1033A0000101000101000101010101000001000112
:1033B0000100000101010001010001010100010102
:1033C00001010101010100000000010101010101F1
:1033D00001010101010001010100000101010100E1
:1033E0000000000000010000000000000016171897
:1033F000191A1B1CE602EA02EF02F502FA02FF02AA
:1034000004030A03110317031E032303DD02290328
:103410002F03350300000000D50804083A083D09D1
:103420009D0849088F0800000000F907FD07010802
:103430000D0A0030003100200031202869677561D5
:103440006C29003020286469666572656E74652990
:103450000042494E430052554E004E4F50005245D7
:103460004144004C4F41444B004144444B005355B0
:10347000424B00434D504B004C45444F4E004C4591
:10348000444F46460042555A4F4E0042555A4F4609
:1034900046004449535000414C4552540053544F48
:0E34A0005245004C4F41444D0048414C5400F1
:020000040003F7
:10E000000D9489F10D94B2F10D94B2F10D94B2F129
:10E010000D94B2F10D94B2F10D94B2F10D94B2F1F0
:10E020000D94B2F10D94B2F10D94B2F10D94B2F1E0
:10E030000D94B2F10D94B2F10D94B2F10D94B2F1D0
:10E040000D94B2F10D94B2F10D94B2F10D94B2F1C0
:10E050000D94B2F10D94B2F10D94B2F10D94B2F1B0
:10E060000D94B2F10D94B2F10D94B2F10D94B2F1A0
:10E070000D94B2F10D94B2F10D94B2F10D94B2F190
:10E080000D94B2F10D94B2F10D94B2F10D94B2F180
:10E090000D94B2F10D94B2F10D94B2F10D94B2F170
:10E0A0000D94B2F10D94B2F10D94B2F10D94B2F160
:10E0B0000D94B2F10D94B2F10D94B2F10D94B2F150
:10E0C0000D94B2F10D94B2F10D94B2F10D94B2F140
:10E0D0000D94B2F10D94B2F10D94B2F10D94B2F130
:10E0E0000D94B2F141546D656761323536300041AF
:10E0F000726475696E6F206578706C6F72657220DE
:10E1000073746B3530305632206279204D4C530099
:10E11000426F6F746C6F616465723E004875683F52
:10E1200000436F6D70696C6564206F6E203D200048
:10E130004350552054797065202020203D20005FF9
:10E140005F4156525F415243485F5F3D2000415658
:10E1500052204C696243205665723D20004743437C
:10E160002056657273696F6E203D20004350552024
:10E1700049442020202020203D20004C6F7720663D
:10E18000757365202020203D20004869676820665F
:10E190007573652020203D200045787420667573D6
:10E1A00065202020203D20004C6F636B2066757336
:10E1B000652020203D20004D617220203720323024
:10E1C000313300312E362E3800342E332E350056A2
:10E1D00023202020414444522020206F7020636F70
:10E1E00064652020202020696E73747275637469E1
:10E1F0006F6E2061646472202020496E74657272B3
:10E20000757074006E6F20766563746F7200726A49
:10E210006D702020006A6D70200057686174207056
:10E220006F72743A00506F7274206E6F7420737541
:10E2300070706F72746564004D7573742062652030
:10E2400061206C6574746572002000577269747483
:10E25000696E672045450052656164696E672045B7
:10E26000450045452065727220636E743D00504F35
:10E27000525400303D5A65726F2061646472003FF1
:10E280003D43505520737461747300403D454550C3
:10E29000524F4D207465737400423D426C696E6B41
:10E2A000204C454400453D44756D70204545505215
:10E2B0004F4D00463D44756D7020464C415348001B
:10E2C000483D48656C70004C3D4C69737420492F83
:10E2D0004F20506F72747300513D51756974005234
:10E2E0003D44756D702052414D00563D73686F7707
:10E2F00020696E7465727275707420566563746FF0
:10E30000727300593D506F727420626C696E6B00BD
:10E310002A0011241FBECFEFD1E2DEBFCDBF01E046
:10E320000CBF12E0A0E0B2E0EEE1FDEF03E00BBFB6
:10E3300002C007900D92A030B107D9F712E0A0E01B
:10E34000B2E001C01D92AE30B107E1F70F9460F367
:10E350000D948DFE01E20EBF0FEF0DBF11241FBE05
:10E360000D9460F30D9400F020E030E040ED57E0B4
:10E3700005C0FA013197F1F72F5F3F4F2817390792
:10E38000C0F308959C01260F311DC901A0E0B0E043
:10E390002F5F3F4FABBFFC018791882361F08093D3
:10E3A000C6008091C00086FFFCCF8091C0008064D1
:10E3B0008093C000EACF08958DE08093C6008091DD
:10E3C000C00086FFFCCF8091C00080648093C000B5
:10E3D0008AE08093C6008091C00086FFFCCF8091C8
:10E3E000C00080648093C00008950F94C2F10F9420
:10E3F000DCF10895FC019081992359F09093C600B7
:10E400008091C00086FFFCCF8091C0008064809323
:10E41000C0003196992379F70895282F982F929567
:10E420009F70892F805D8A3308F0895F8093C600D2
:10E430008091C00086FFFCCF8091C00080648093F3
:10E44000C000822F8F70982F905D9A3308F0995FEB
:10E450009093C6008091C00086FFFCCF8091C000E1
:10E4600080648093C00008959C01FB01853691056E
:10E470001CF46330710594F0C90164E670E00F94F8
:10E480002EFE605D7F4F6093C6008091C00086FFC6
:10E49000FCCF8091C00080648093C0002B30310598
:10E4A00014F43297B4F0C90164E670E00F942EFEC4
:10E4B0006AE070E00F942EFE605D7F4F6093C600AF
:10E4C0008091C00086FFFCCF8091C0008064809363
:10E4D000C000C9016AE070E00F942EFEC0968093E0
:10E4E000C6008091C00086FFFCCF8091C000806490
:10E4F0008093C00008951F93182F8EE692EE60E07F
:10E500000F94C2F11093C6008091C00086FFFCCF2B
:10E510008091C00080648093C0000F94DCF11F9153
:10E5200008952F923F924F925F926F927F928F92B7
:10E530009F92AF92BF92CF92DF92EF92FF920F9392
:10E540001F93DF93CF93CDB7DEB762970FB6F894E2
:10E55000DEBF0FBECDBF382E622ECA01DB015C01CB
:10E560006D01772420E2222E2E010894411C511CBB
:10E570008BC081E0A81680E0B80681E0C80680E084
:10E58000D80628F0C601AA27BB270F940DF2BB2797
:10E59000AD2D9C2D8B2D0F940DF28A2D0F940DF225
:10E5A0002092C6008091C00086FFFCCF8091C00001
:10E5B00080648093C0009DE29093C6008091C0006B
:10E5C00086FFFCCF8091C00080648093C0002092C1
:10E5D000C6008091C00086FFFCCF8091C00080649F
:10E5E0008093C00019828601750188249924A1E0D6
:10E5F0003A1651F03A1620F0B2E03B1661F409C029
:10E600000BBFF701779007C0C7010F9477FE782EF4
:10E6100002C0F7017080872D0F940DF22092C60082
:10E620008091C00086FFFCCF8091C0008064809301
:10E63000C000872D8052F401EF70F0708F3520F408
:10E64000E40DF51D708204C0E40DF51D8EE280839B
:10E650000894E11CF11C011D111D0894811C911CE2
:10E6600090E18916910409F0C2CF80E190E0A0E02A
:10E67000B0E0A80EB91ECA1EDB1E198AC2010F9493
:10E68000FAF10F94DCF16A94662009F072CF629679
:10E690000FB6F894DEBF0FBECDBFCF91DF911F91B3
:10E6A0000F91FF90EF90DF90CF90BF90AF909F9031
:10E6B0008F907F906F905F904F903F902F90089534
:10E6C0002F923F924F925F926F927F928F929F9282
:10E6D000AF92BF92CF92DF92EF92FF920F931F9370
:10E6E000DF93CF93CDB7DEB7CD53D1400FB6F894BB
:10E6F000DEBF0FBECDBF01E20EBF0FEF0DBF94B75F
:10E70000F894A89514BE80916000886180936000A1
:10E7100010926000789493FF05C0E0910002F091A0
:10E7200001021995279A2F9A8091C00082608093E8
:10E73000C00080E18093C40088E18093C1000000A4
:10E74000EE24FF24870144E0A42EB12CCC24DD2448
:10E7500024C0C5010197F1F70894E11CF11C011DCB
:10E76000111D21E2E2162EE4F20620E0020720E06D
:10E77000120718F031E0C32ED12CC801B70127ECE5
:10E780003BE140E050E00F9441FE611571058105C9
:10E79000910519F485B1805885B98091C00087FD35
:10E7A00003C0C114D104A9F2A6014F5F5F4FC25E3E
:10E7B000DE4F59834883CE51D140C25EDE4F8881FF
:10E7C0009981CE51D140019711F00D9410FEC05D9A
:10E7D000DE4F19821882C053D14060E0C15DDE4F28
:10E7E0001882CF52D14088249924C35DDE4F19820C
:10E7F0001882CD52D140C05EDE4F188219821A8233
:10E800001B82C052D140CE5CDE4F188219821A8220
:10E810001B82C253D140EE24FF2487010BBFF701B6
:10E8200007911691C45CDE4F19830883CC53D14005
:10E830000D940BFEC25EDE4F28813981CE51D1404E
:10E840002130310509F52091C600C25EDE4F1982E4
:10E850001882CE51D14022C02F5F3F4F4F4F5F4FA4
:10E86000213082E138078AE7480780E0580780F0C6
:10E87000C45CDE4FE881F981CC53D140EF5FFF4F9C
:10E8800019F0EE27FF27099420E030E040E050E047
:10E890008091C00087FFE0CF2091C600C35DDE4FAE
:10E8A00048815981CD52D1404F5F5F4FC35DDE4FEC
:10E8B00059834883CD52D140213209F063C64A3092
:10E8C000510508F05FC60894811C911C53E0851621
:10E8D000910409F059C600E010E018C081E280936D
:10E8E000C6008091C00086FFFCCF8091C00080648C
:10E8F0008093C0002F5F3F4F2931310579F70F9486
:10E90000DCF10F5F1F4F0530110519F020E030E0FA
:10E91000E5CF10920A0210920B0210920C02109294
:10E920000D02109206021092070210920802109235
:10E930000902109202021092030210920402109235
:10E9400005028FEE90EE60E00F94F5F180E191EE1C
:10E9500060E00F94C2F18091C00087FFFCCF9091DE
:10E96000C600903608F09F759032B8F09093C600BC
:10E970008091C00086FFFCCF8091C00080648093AE
:10E98000C000A0E2A093C6008091C00086FFFCCF2B
:10E990008091C00080648093C000983409F4D7C18E
:10E9A0009934B8F4923409F459C1933458F490333B
:10E9B00019F1903308F4E3C59F33A1F1903409F0C5
:10E9C000DEC5BDC0953409F470C1963409F0D7C5D1
:10E9D00098C1923509F42BC2933538F49C3409F46C
:10E9E000F5C1913509F0CBC518C2963509F445C279
:10E9F000993509F0C4C567C483E792EE62E00F94CD
:10EA0000F5F110920602109207021092080210927D
:10EA1000090210920A0210920B0210920C0210923C
:10EA20000D0213C18FE792EE62E00F94F5F18FEEC5
:10EA300090EE60E00F94F5F181E291EE60E00F94CA
:10EA4000C2F187EB91EE60E00F94F5F180E391EE77
:10EA500060E00F94C2F184EE90EE60E00F94F5F167
:10EA60008FE391EE60E00F94C2F186E090E061E008
:10EA700070E00F9434F20F94DCF18DE591EE60E0DC
:10EA80000F94C2F189EC91EE60E00F94F5F18EE401
:10EA900091EE60E00F94C2F183EC91EE60E00F9490
:10EAA000F5F18CE691EE60E00F94C2F18EE10F94E7
:10EAB0000DF288E90F940DF281E00F940DF20F949E
:10EAC000DCF18BE791EE60E00F94C2F119E0E0E039
:10EAD000F0E010935700E4918E2F0F940DF20F94F5
:10EAE000DCF18AE891EE60E00F94C2F1E3E0F0E03F
:10EAF00010935700E4918E2F0F940DF20F94DCF1D8
:10EB000089E991EE60E00F94C2F1E2E0F0E0109349
:10EB10005700E4918E2F0F940DF20F94DCF188EAE8
:10EB200091EE60E00F94C2F1E1E0F0E01093570045
:10EB30001491812F0F940DF20F94DCF107CF8BE825
:10EB400092EE62E00F94F5F18BE492EE60E00F94A8
:10EB5000F5F10F94DCF100E010E019C0C8016F2D51
:10EB60000F947FFEFF2031F489E492EE60E00F9471
:10EB7000C2F10BC0F092C6008091C00086FFFCCFAE
:10EB80008091C00080648093C0000F5F1F4FC80158
:10EB900081519F41A0E0B0E0ABBFFC01F790BAE229
:10EBA000FB1621F0E2E000301E07C1F60F94DCF105
:10EBB0000F94DCF187E592EE60E00F94F5F10F948D
:10EBC000DCF1CC24DD2400E010E01EC0C8010F946D
:10EBD00077FEF82E882331F489E492EE60E00F94FA
:10EBE000C2F10BC08093C6008091C00086FFFCCFAD
:10EBF0008091C00080648093C000FE1419F00894D6
:10EC0000C11CD11C0F5F1F4FC80181519F41A0E063
:10EC1000B0E0ABBFFC01E790FAE2EF1621F022E092
:10EC20000030120799F60F94DCF10F94DCF182E6C4
:10EC300092EE60E00F94C2F1C60161E070E00F94C3
:10EC400034F20F94DCF10F94DCF110920202109276
:10EC50000302109204021092050278CE89E992EE26
:10EC600062E00F94F5F1279A2F9A16C02F9880E052
:10EC700090E0E0EDF7E03197F1F7019684369105E9
:10EC8000C1F72F9A80E090E0E0EDF7E03197F1F7DF
:10EC9000019684369105C1F78091C00087FFE6CFC9
:10ECA0008091C00087FFFCCF64C485EA92EE62E0E9
:10ECB0000F94F5F140910202509103026091040219
:10ECC0007091050281E020E10F9491F2809102029F
:10ECD00090910302A0910402B091050280509F4FD1
:10ECE000AF4FBF4F8093020290930302A0930402A0
:10ECF000B093050280509041A040B04008F426CE69
:10ED0000A4CF83EB92EE62E00F94F5F140910602FE
:10ED100050910702609108027091090280E020E1A1
:10ED20000F9491F28091060290910702A09108023F
:10ED3000B091090280509F4FAF4FBF4F80930602A2
:10ED400090930702A0930802B0930902FFCD80ECD4
:10ED500092EE62E00F94F5F183E792EE60E00F949B
:10ED6000F5F18FE792EE60E00F94F5F18BE892EE0B
:10ED700060E00F94F5F189E992EE60E00F94F5F10F
:10ED800085EA92EE60E00F94F5F183EB92EE60E09D
:10ED90000F94F5F180EC92EE60E00F94F5F187ECC2
:10EDA00092EE60E00F94F5F188ED92EE60E00F9442
:10EDB000F5F18FED92EE60E00F94F5F18AEE92EEB0
:10EDC00060E00F94F5F183E093EEBDCD87EC92EE19
:10EDD00062E00F94F5F181E40F947BF282E40F94EA
:10EDE0007BF283E40F947BF284E40F947BF285E45E
:10EDF0000F947BF286E40F947BF287E40F947BF20E
:10EE000088E40F947BF28AE40F947BF28BE40F94F6
:10EE10007BF28CE40F947BF299CD88ED92EE62E068
:10EE20000F94F5F1772473948824992409C48FED05
:10EE300092EE62E00F94F5F140910A0250910B02BC
:10EE400060910C0270910D0282E020E10F9491F22A
:10EE500080910A0290910B02A0910C02B0910D02D8
:10EE600080509F4FAF4FBF4F80930A0290930B0289
:10EE7000A0930C02B0930D0269CD8AEE92EE62E08F
:10EE80000F94F5F184EE90EE60E00F94F5F18FECC5
:10EE900091EE60E00F94F5F1662477244301CC5D98
:10EEA000DE4F19821882C452D140D401C301B695F5
:10EEB000A79597958795CA5DDE4F88839983AA8326
:10EEC000BB83C652D140CC5DDE4FA881B981C4520C
:10EED000D1401196CC5DDE4FB983A883C452D14096
:10EEE000CD0162E070E00F9434F2B0E2B093C6005E
:10EEF0008091C00086FFFCCF8091C0008064809329
:10EF0000C000EDE2E093C6008091C00086FFFCCF18
:10EF10008091C00080648093C000F0E2F093C6004E
:10EF20008091C00086FFFCCF8091C00080648093F8
:10EF3000C000CA5DDE4FE880F9800A811B81C6529D
:10EF4000D140BB27A12F902F8F2D0F940DF2CA5DBA
:10EF5000DE4F8881C652D1400F940DF2B0E2FB2EF5
:10EF6000F092C6008091C00086FFFCCF8091C00067
:10EF700080648093C0000DE30093C6008091C000C0
:10EF800086FFFCCF8091C00080648093C00010E2B7
:10EF90001093C6008091C00086FFFCCF8091C00016
:10EFA00080648093C0008BBEF3012791C65DDE4F65
:10EFB0002883CA52D140A22EBB24CC24DD2408943D
:10EFC000611C711C811C911C8BBEF3018791282E42
:10EFD0003324442455240894611C711C811C911C09
:10EFE0008BBEF3013791C55DDE4F3883CB52D140E4
:10EFF0000894611C711C811C911C8BBEF30147910C
:10F00000C45DDE4F4883CC52D140ADEFEA2EAFEF66
:10F01000FA2EAFEF0A2FAFEF1A2F6E0C7F1C801E57
:10F02000911E142D032DF22CEE24EA0CFB1C0C1D5A
:10F030001D1D0F940DF220E22093C6008091C000A8
:10F0400086FFFCCF8091C00080648093C000C65DC5
:10F05000DE4F8881CA52D1400F940DF230E23093D6
:10F06000C6008091C00086FFFCCF8091C000806404
:10F070008093C000C45DDE4F8881CC52D1400F9494
:10F080000DF240E24093C6008091C00086FFFCCFA5
:10F090008091C00080648093C000C55DDE4F888190
:10F0A000CB52D1400F940DF250E25093C6008091A4
:10F0B000C00086FFFCCF8091C00080648093C000B8
:10F0C0008FEFE8168FEFF80680E0080780E018075A
:10F0D00031F484E092EE60E00F94C2F1DFC0D80119
:10F0E000C7018070907CA070B0708050904CA040A0
:10F0F000B040D1F52FEF3FE340E050E0E222F322B1
:10F1000004231523CA5DDE4FA880B980CA80DB8046
:10F11000C652D140AE0CBF1CC01ED11EAA0CBB1CD7
:10F12000CC1CDD1C8EE092EE60E00F94C2F1BB2798
:10F13000A12F902F8F2D0F940DF28E2D0F940DF285
:10F1400030E23093C6008091C00086FFFCCF8091F2
:10F15000C00080648093C0004EE34093C60080915D
:10F16000C00086FFFCCF87C08EE09EEFA0E0B0E03D
:10F17000E822F9220A231B239CE0E91694E9F90608
:10F1800090E0090790E0190709F088C0C45DDE4FE0
:10F19000A881CC52D140EA2EFF2400E010E0102FCD
:10F1A0000F2DFE2CEE24C55DDE4FB881CB52D14031
:10F1B000EB0EF11C011D111DD601C501817090706F
:10F1C000A070B070DC0199278827E80EF91E0A1F8D
:10F1D0001B1F20EF30E040E050E0A222B322C42207
:10F1E000D52241E1AA0CBB1CCC1CDD1C4A95D1F7F1
:10F1F000EA0CFB1C0C1D1D1D81E090E0A0E0B0E0BE
:10F20000282239224A225B2235E1220C331C441C7D
:10F21000551C3A95D1F7E20CF31C041D151D57013E
:10F220006801AA0CBB1CCC1CDD1C85E192EE60E0E1
:10F230000F94C2F1C801AA27BB270F940DF2BB2778
:10F24000A12F902F8F2D0F940DF28E2D0F940DF274
:10F2500090E29093C6008091C00086FFFCCF809121
:10F26000C00080648093C000AEE3A093C60080918C
:10F27000C00086FFFCCF8091C00080648093C000F6
:10F28000C601AA27BB270F940DF2BB27AD2D9C2DDD
:10F290008B2D0F940DF28A2D0F940DF20F94DCF14B
:10F2A000CC5DDE4FE881F981C452D140F99709F471
:10F2B0004DCBF4E0EF2EF12C012D112D6E0C7F1CA7
:10F2C000801E911EF2CD83E093EE62E00F94F5F183
:10F2D0008AE192EE60E00F94C2F18091C00087FF56
:10F2E000FCCF1091C6001F751093C6008091C0001E
:10F2F00086FFFCCF8091C00080648093C0000F9493
:10F30000DCF1812F81548A3108F036C1163409F4BA
:10F3100095C0173490F4133409F44EC0143430F40B
:10F320001134F1F0123409F01DC130C0143409F465
:10F3300059C0153409F016C16BC01A3409F4C4C0A1
:10F340001B3438F4173409F48FC0183409F00AC19B
:10F35000A1C01B3409F4D2C01C3409F003C1E8C0B9
:10F360008FEF81B90DC082B1809582B980E090E0C5
:10F37000E0EDF7E03197F1F70196883C9105C1F790
:10F380008091C00087FFEFCF12B8EFC08FEF84B934
:10F390000DC085B1809585B980E090E0E0EDF7E0A3
:10F3A0003197F1F70196883C9105C1F78091C00033
:10F3B00087FFEFCF15B8D9C08FEF87B90DC088B1DF
:10F3C000809588B980E090E0E0EDF7E03197F1F7C3
:10F3D0000196883C9105C1F78091C00087FFEFCF6F
:10F3E00018B8C3C08FEF8AB90DC08BB180958BB9A7
:10F3F00080E090E0E0EDF7E03197F1F70196883C8E
:10F400009105C1F78091C00087FFEFCF1BB8ADC059
:10F410008FEF8DB90DC08EB180958EB980E090E0F0
:10F42000E0EDF7E03197F1F70196883C9105C1F7DF
:10F430008091C00087FFEFCF1EB897C08FEF80BBD1
:10F440000DC081B3809581BB80E090E0E0EDF7E0F6
:10F450003197F1F70196883C9105C1F78091C00082
:10F4600087FFEFCF11BA81C08FEF83BB0DC084B38C
:10F47000809584BB80E090E0E0EDF7E03197F1F714
:10F480000196883C9105C1F78091C00087FFEFCFBE
:10F4900014BA6BC08FEF809301010FC080910201FD
:10F4A00080958093020180E090E0E0EDF7E03197F5
:10F4B000F1F70196883C9105C1F78091C00087FF64
:10F4C000EDCF1092020151C08FEF809304010FC065
:10F4D0008091050180958093050180E090E0E0ED4A
:10F4E000F7E03197F1F70196883C9105C1F78091DB
:10F4F000C00087FFEDCF1092050137C08FEF8093DA
:10F5000007010FC08091080180958093080180E079
:10F5100090E0E0EDF7E03197F1F70196883C910536
:10F52000C1F78091C00087FFEDCF109208011DC088
:10F530008FEF80930A010FC080910B01809580931B
:10F540000B0180E090E0E0EDF7E03197F1F70196F4
:10F55000883C9105C1F78091C00087FFEDCF1092E4
:10F560000B0103C085E292EEEEC98091C00087FFD7
:10F57000FCCF8091C600EAC988E392EEE4C98CE131
:10F5800091EEE1C988249924933011F1943028F444
:10F59000913089F09230B8F408C0953061F195301F
:10F5A000F0F0963009F048C043C02B3109F042C951
:10F5B00091E06BE13FC96227C15DDE4F2883CF52E6
:10F5C000D14092E037C9B22FA0E0622793E032C960
:10F5D000822F90E0A82BB92B622794E02BC92E3004
:10F5E00009F039C3622795E0C05DDE4F19821882A9
:10F5F000C053D1401FC9E1E0F0E0EC0FFD1FC05D3A
:10F60000DE4F08811981C053D140E00FF11F2083E4
:10F610000F5F1F4FC05DDE4F19830883C053D14079
:10F6200062270A171B0709F005C9D80196E002C92D
:10F63000261709F010C303C0973009F0FBC87724E0
:10F640009981933109F412C19431C8F4963009F4C8
:10F65000D8C0973050F4923009F406C1933009F4C1
:10F660006DC0913009F059C253C0913109F477C08F
:10F67000923108F0BBC0903109F04FC2F5C098310B
:10F6800009F487C0993150F4953109F4EFC09531F0
:10F6900008F4C6C1963109F040C2C2C19A3109F4DA
:10F6A0006CC09A3108F491C09B3109F45BC09D3164
:10F6B00009F033C29D81903359F48F81882311F46E
:10F6C0009EE11CC0813011F091E018C098E916C08D
:10F6D000892F807591F0903539F4E0E0F0E089E011
:10F6E0008093570094910AC0983539F4E3E0F0E034
:10F6F00089E080935700949101C090E01A821B82A8
:10F700008D818C831D829E831F8227E030E009C299
:10F710001A8288E08B8381E48C8386E58D8382E581
:10F720008E8389E48F8383E5888780E589878FE5E9
:10F730008A8782E38B872BE030E0F3C18A818139AD
:10F7400041F0823941F0803911F48FE005C080E04A
:10F7500003C082E001C08AE01A828B8344C0772410
:10F76000739482C08D81882311F48EE12CC0813086
:10F7700011F081E028C088E926C01A82E1E0F0E0BB
:10F7800089E08093570084918B831C8224E030E0D1
:10F79000C8C18B81803589F48C81883039F4E2E0EE
:10F7A000F0E089E08093570084910DC0E0E0F0E044
:10F7B00089E080935700849106C0E3E0F0E089E09F
:10F7C0008093570084911A82DFCF8D81836C99E0FA
:10F7D000E1E0F0E0082E90935700E89507B600FCB2
:10F7E000FDCF1A821B8223E030E09BC180EC8A832C
:10F7F000CE5CDE4F188219821A821B82C253D1401E
:10F800008EC18A8190E0A0E0B0E0582F44273327D2
:10F8100022278B8190E0A0E0B0E0DC0199278827C7
:10F82000282B392B4A2B5B2B8D8190E0A0E0B0E098
:10F83000282B392B4A2B5B2B8C8190E0A0E0B0E089
:10F84000BA2FA92F982F8827282B392B4A2B5B2BCF
:10F85000220F331F441F551FC05EDE4F288339839C
:10F860004A835B83C052D1401A8259C13A81C95C34
:10F87000DE4F3883C753D140CA5CDE4F1882C6536F
:10F88000D1408B81C82EDD24CA5CDE4F488159816E
:10F89000C653D140C42AD52A933109F082C0CE5C28
:10F8A000DE4F88819981AA81BB81C253D1408050AB
:10F8B000904CA340B04030F583E0CE5CDE4FE88052
:10F8C000F9800A811B81C253D140F70100935B008C
:10F8D00080935700E89507B600FCFDCFCE5CDE4F65
:10F8E000088119812A813B81C253D14000501F4FAA
:10F8F0002F4F3F4FCE5CDE4F088319832A833B8313
:10F90000C253D140C05EDE4F488159816A817B81FC
:10F91000C052D140DE011B9631E08C9111962C91A2
:10F9200011971296C75CDE4F2883C953D140C85C3B
:10F93000DE4F1882C853D14090E0C85CDE4FE881AA
:10F94000F981C853D1408E2B9F2B0C01FA01609393
:10F950005B0030935700E89511244E5F5F4F6F4F67
:10F960007F4F0EEFE02E0FEFF02ECE0CDF1CC114F8
:10F97000D10499F685E0C05EDE4F088119812A81A5
:10F980003B81C052D140F80120935B008093570027
:10F99000E89507B600FCFDCF81E180935700E8951C
:10F9A00035C0C05EDE4F88819981AA81BB81C0527B
:10F9B000D140B695A795979587957C018601ABE0D8
:10F9C000AA2EB12CAC0EBD1E0BC0D5016D915D01F0
:10F9D000C7010F947FFE0894E11CF11C01501040F8
:10F9E0000115110591F7A60160E070E0440F551F65
:10F9F000661F771FC05EDE4FE880F9800A811B8199
:10FA0000C052D1404E0D5F1D601F711F1A82C05E33
:10FA1000DE4F488359836A837B83C052D1407FC0C5
:10FA2000FA80C55CDE4FF882CB53D140C65CDE4F16
:10FA30001882CA53D1408B81C82EDD24C65CDE4FAC
:10FA400008811981CA53D140C02AD12A1A828981DA
:10FA5000BE016D5F7F4F843121F59601C05EDE4FA0
:10FA6000E880F9800A811B81C052D1400BBFF701A9
:10FA700087919691DB018C9311969C936E5F7F4FDB
:10FA8000D801C7010296A11DB11DC05EDE4F88835B
:10FA90009983AA83BB83C052D14022503040F1F6F3
:10FAA00036C0C05EDE4F288139814A815B81C052F9
:10FAB000D1400894C108D108760100E010E0089414
:10FAC000C11CD11C0894E11CF11C011D111DE20E8A
:10FAD000F31E041F151F21BDBB27A52F942F832FB5
:10FAE00082BD2F5F3F4F4F4F5F4FF89A80B5DB01CC
:10FAF0008D93BD012E153F054007510761F7C05E8C
:10FB0000DE4F288339834A835B83C052D1409601FC
:10FB10002D5F3F4FFB01108204C080EC8A8322E0FE
:10FB200030E08BE18093C6008091C00086FFFCCF5F
:10FB30008091C00080648093C000C15DDE4FF88179
:10FB4000CF52D140F093C6008091C00086FFFCCF19
:10FB50008091C00080648093C000432F3093C60022
:10FB60008091C00086FFFCCF8091C00080648093AC
:10FB7000C000922F2093C6008091C00086FFFCCF6A
:10FB80008091C00080648093C0008EE08093C600A6
:10FB90008091C00086FFFCCF8091C000806480937C
:10FBA000C00065E1C15DDE4FE880CF52D1406E25D7
:10FBB00069276427FE01319610C090819093C6009A
:10FBC0008091C00086FFFCCF31968091C000806498
:10FBD0008093C0006927215030402115310569F715
:10FBE0006093C6008091C00086FFFCCF8091C0006A
:10FBF00080648093C00085B1805885B9772081F4F6
:10FC0000C15DDE4F0881CF52D1400F5FC15DDE4F35
:10FC10000883CF52D14090E0A0E0B0E00D941AF4F8
:10FC200027982F9880E090E020ED37E0F901319798
:10FC3000F1F7019684369105C9F700008091C00064
:10FC40008D7F8093C00081E180935700E895EE2777
:10FC5000FF270994FFCF90E00D941AF497FB092E2B
:10FC600007260AD077FD04D02ED006D000201AF443
:10FC7000709561957F4F0895F6F7909581959F4F08
:10FC80000895A1E21A2EAA1BBB1BFD010DC0AA1FDD
:10FC9000BB1FEE1FFF1FA217B307E407F50720F0F5
:10FCA000A21BB30BE40BF50B661F771F881F991F70
:10FCB0001A9469F760957095809590959B01AC01B9
:10FCC000BD01CF010895AA1BBB1B51E107C0AA1FAC
:10FCD000BB1FA617B70710F0A61BB70B881F991FED
:10FCE0005A95A9F780959095BC01CD010895F99991
:10FCF000FECF92BD81BDF89A992780B50895262F31
:10FD0000F999FECF1FBA92BD81BD20BD0FB6F89400
:0EFD1000FA9AF99A0FBE01960895F894FFCF63
:00000001FF
